:020000040000FA
:060000000A128A11FC2F18
:100EE40001308316031385008601831203138601E0
:100EF400F701F301F4010130F000770A832F0310A6
:100F0400F00DFF3E031D812F70088312031386002A
:100F14005B30F100E730F000F00B8E2FF10B8E2FD9
:100F2400932F0130F0007008F70704307706031D93
:100F34009C2F9D2F9E2FF7010130F3070318F40A0D
:100F44000030F4077408803AFF0080307F02031DEC
:100F5400AD2F30307302031CB02FB12F7D2F06301C
:100F6400F2001330F100AD30F000F00BB72FF10BAD
:100F7400B72FF20BB72FBE2FF701F501F601770A51
:100F8400F0000830F1000030F200CB2F720DF20CAB
:100F9400F10CF00BC82F7108831203138600013083
:100FA400F0007008F7075B30F100E730F000F00B59
:100FB400D92FF10BD92FDE2F04307706031DE32F31
:100FC400E42FE52FF7010130F5070318F60A003086
:100FD400F6077608803AFF0080307F02031DF42F65
:100FE40030307502031CF72FF82FC12F7B2F0A1204
:0C0FF4008A11002883010A128A11722F52
:02400E00713F00
:00000001FF
