:020000040000FA
:060000000A128A110C280F
:10000800FE00030EF1000A08F2000A128A111428F1
:100018000A128A110F28F30183010A128A11332860
:10002800831203130C1C19281A282C283C308F0023
:10003800B0308E000130F0007008F30714307306FA
:10004800031D272828282B2801308606F3010C10C9
:1000580072088A00710E8300FE0E7E0E0900831658
:10006800031386018312031306100A128A114A2009
:100078000A128A118B170B17831203130C1083169D
:1000880003130C1446280A128A110C283C308312D8
:1000980003138F00B0308E009012101290101014BD
:0200A80008004E
:02400E00713F00
:00000001FF
